:020000020000FC
:100000000FEF0DBF08E00EBF00E007B90FEF08B912
:100010000FEF04B900E005B90FEF0AB900E00BB922
:1000200000E00093C1001FE720E050E0F0E0E4EAC8
:1000300024912BB906B11017E9F30E94450006B1CF
:100040001017C1F3102F02FF0E942B0003FF0E9424
:1000500031002BB9EFCF5395503151F031962491A7
:100060000895503059F02A955A9531972491089562
:10007000F0E0E4EA24912BB950E00895F0E0E4EADE
:100080003F9624912BB95FE008953FEF3A953030C9
:10009000E9F73FEF3A953030E9F73FEF3A953030E6
:1000A000E9F708957706B397C6D5F507F7D7E7F4CC
:0400B00071B6F1E153
:00000001FF
