:020000020000FC
:0A0000000FEF0DBF08E00EBF06C0B1
:100014004AC000E80093610004E0009361000E947C
:1000240079000FEF04B900E005B900E007B90FEF5C
:1000340008B90FEF04B900E005B90FEF0AB900E001
:100044000BB900E00093C1001FE720E050E0F0E0AE
:10005400ECEF24912BB902E0009368000CE00093CC
:100064006C00789405B300FFFDCFA89A04E606BDA2
:1000740043954436B9F74427351719F0339535B904
:10008400F1CF307134FF03C034FD07C0EBCF30E152
:10009400530F35B970E18FE1E5CF30E035B95F70CA
:1000A40070E08FE0DFCF307135B916B112FF0E94D6
:1000B400600013FF0E9466002BB91895581751F081
:1000C4005395319624910895571751F05A953197C5
:1000D40024910895F0E0ECEF24912BB9572F089563
:1000E400F0E0ECEF3F9624912BB9582F089503E0EC
:1000F40005BD04E606BD08957706B397C6D5F50792
:08010400F7D7E7F471B6F1E151
:00000001FF
