:020000020000FC
:0A0000000FEF0DBF08E00EBF06C0B1
:100014003BC000E80093610004E0009361000E948B
:100024006A000FEF04B900E005B900E007B90FEF6B
:1000340008B90FEF04B900E005B90FEF0AB900E001
:100044000BB900E00093C1001FE720E050E0F0E0AE
:10005400EEED24912BB902E0009368000CE00093CC
:100064006C00789405B300FFFDCFA89A04E606BDA2
:1000740043954436B9F744273395303111F035B9F7
:10008400F1CF30E035B9EECF307135B916B112FF8A
:100094000E94510013FF0E9457002BB918955395E5
:1000A400503149F0319624910895503051F05A95C9
:1000B400319724910895F0E0EEED24912BB950E0AE
:1000C4000895F0E0EEED3F9624912BB95FE008959A
:1000D40003E005BD04E606BD08957706B397C6D5CB
:0A00E400F507F7D7E7F471B6F1E174
:00000001FF
